{
  "_format": "hh-sol-artifact-1",
  "contractName": "DistributionExecutable",
  "sourceName": "contracts/executor.sol",
  "abi": [
    {
      "inputs": [
        {
          "internalType": "address",
          "name": "gateway_",
          "type": "address"
        },
        {
          "internalType": "address",
          "name": "gasReceiver_",
          "type": "address"
        },
        {
          "internalType": "string",
          "name": "_chainName",
          "type": "string"
        }
      ],
      "stateMutability": "nonpayable",
      "type": "constructor"
    },
    {
      "inputs": [],
      "name": "InvalidAddress",
      "type": "error"
    },
    {
      "inputs": [],
      "name": "NotApprovedByGateway",
      "type": "error"
    },
    {
      "anonymous": false,
      "inputs": [
        {
          "indexed": false,
          "internalType": "address[]",
          "name": "list",
          "type": "address[]"
        }
      ],
      "name": "WhitelistDapps",
      "type": "event"
    },
    {
      "anonymous": false,
      "inputs": [
        {
          "indexed": false,
          "internalType": "address[]",
          "name": "list",
          "type": "address[]"
        }
      ],
      "name": "WhitelistExchanges",
      "type": "event"
    },
    {
      "inputs": [
        {
          "internalType": "address[]",
          "name": "list",
          "type": "address[]"
        }
      ],
      "name": "addWhitelistDapps",
      "outputs": [],
      "stateMutability": "nonpayable",
      "type": "function"
    },
    {
      "inputs": [
        {
          "internalType": "address[]",
          "name": "list",
          "type": "address[]"
        }
      ],
      "name": "addWhitelistExchanges",
      "outputs": [],
      "stateMutability": "nonpayable",
      "type": "function"
    },
    {
      "inputs": [],
      "name": "admin",
      "outputs": [
        {
          "internalType": "address",
          "name": "",
          "type": "address"
        }
      ],
      "stateMutability": "view",
      "type": "function"
    },
    {
      "inputs": [],
      "name": "chainName",
      "outputs": [
        {
          "internalType": "string",
          "name": "",
          "type": "string"
        }
      ],
      "stateMutability": "view",
      "type": "function"
    },
    {
      "inputs": [
        {
          "components": [
            {
              "internalType": "address",
              "name": "target",
              "type": "address"
            },
            {
              "internalType": "bytes",
              "name": "payload",
              "type": "bytes"
            },
            {
              "internalType": "address",
              "name": "tokenIn",
              "type": "address"
            }
          ],
          "internalType": "struct DistributionExecutable.RouteInfo[]",
          "name": "_routes",
          "type": "tuple[]"
        }
      ],
      "name": "exchange",
      "outputs": [],
      "stateMutability": "payable",
      "type": "function"
    },
    {
      "inputs": [
        {
          "internalType": "bytes32",
          "name": "commandId",
          "type": "bytes32"
        },
        {
          "internalType": "string",
          "name": "sourceChain",
          "type": "string"
        },
        {
          "internalType": "string",
          "name": "sourceAddress",
          "type": "string"
        },
        {
          "internalType": "bytes",
          "name": "payload",
          "type": "bytes"
        }
      ],
      "name": "execute",
      "outputs": [],
      "stateMutability": "nonpayable",
      "type": "function"
    },
    {
      "inputs": [
        {
          "internalType": "bytes32",
          "name": "commandId",
          "type": "bytes32"
        },
        {
          "internalType": "string",
          "name": "sourceChain",
          "type": "string"
        },
        {
          "internalType": "string",
          "name": "sourceAddress",
          "type": "string"
        },
        {
          "internalType": "bytes",
          "name": "payload",
          "type": "bytes"
        },
        {
          "internalType": "string",
          "name": "tokenSymbol",
          "type": "string"
        },
        {
          "internalType": "uint256",
          "name": "amount",
          "type": "uint256"
        }
      ],
      "name": "executeWithToken",
      "outputs": [],
      "stateMutability": "nonpayable",
      "type": "function"
    },
    {
      "inputs": [],
      "name": "gasReceiver",
      "outputs": [
        {
          "internalType": "contract IAxelarGasService",
          "name": "",
          "type": "address"
        }
      ],
      "stateMutability": "view",
      "type": "function"
    },
    {
      "inputs": [],
      "name": "gateway",
      "outputs": [
        {
          "internalType": "contract IAxelarGateway",
          "name": "",
          "type": "address"
        }
      ],
      "stateMutability": "view",
      "type": "function"
    },
    {
      "inputs": [
        {
          "internalType": "address",
          "name": "addr",
          "type": "address"
        }
      ],
      "name": "isWhitelistDapp",
      "outputs": [
        {
          "internalType": "bool",
          "name": "",
          "type": "bool"
        }
      ],
      "stateMutability": "view",
      "type": "function"
    },
    {
      "inputs": [
        {
          "internalType": "address",
          "name": "addr",
          "type": "address"
        }
      ],
      "name": "isWhitelistExchange",
      "outputs": [
        {
          "internalType": "bool",
          "name": "",
          "type": "bool"
        }
      ],
      "stateMutability": "view",
      "type": "function"
    },
    {
      "inputs": [
        {
          "components": [
            {
              "internalType": "address",
              "name": "target",
              "type": "address"
            },
            {
              "internalType": "bytes",
              "name": "payload",
              "type": "bytes"
            },
            {
              "internalType": "address",
              "name": "tokenIn",
              "type": "address"
            }
          ],
          "internalType": "struct DistributionExecutable.RouteInfo[]",
          "name": "routes",
          "type": "tuple[]"
        },
        {
          "internalType": "uint256",
          "name": "tokenInputAmount",
          "type": "uint256"
        },
        {
          "internalType": "bool",
          "name": "nativeEth",
          "type": "bool"
        },
        {
          "components": [
            {
              "internalType": "string",
              "name": "destinationChain",
              "type": "string"
            },
            {
              "internalType": "string",
              "name": "destinationAddress",
              "type": "string"
            },
            {
              "internalType": "string",
              "name": "tokenSymbol",
              "type": "string"
            },
            {
              "internalType": "uint256",
              "name": "tokenAmount",
              "type": "uint256"
            },
            {
              "internalType": "bytes",
              "name": "payload",
              "type": "bytes"
            }
          ],
          "internalType": "struct DistributionExecutable.BridgeInfo",
          "name": "bridgeInfo",
          "type": "tuple"
        }
      ],
      "name": "zipexecute",
      "outputs": [],
      "stateMutability": "payable",
      "type": "function"
    }
  ],
  "bytecode": "0x60c06040527fffffffffffffffffffffffffffffffffffffffffffffffffffffffffffffffff6004553480156200003557600080fd5b50604051620030973803806200309783398181016040528101906200005b919062000442565b82600073ffffffffffffffffffffffffffffffffffffffff168173ffffffffffffffffffffffffffffffffffffffff161415620000c4576040517fe6c4247b00000000000000000000000000000000000000000000000000000000815260040160405180910390fd5b8073ffffffffffffffffffffffffffffffffffffffff1660808173ffffffffffffffffffffffffffffffffffffffff1681525050508173ffffffffffffffffffffffffffffffffffffffff1660a08173ffffffffffffffffffffffffffffffffffffffff168152505080600290805190602001906200014592919062000190565b5033600360006101000a81548173ffffffffffffffffffffffffffffffffffffffff021916908373ffffffffffffffffffffffffffffffffffffffff16021790555050505062000522565b8280546200019e90620004ec565b90600052602060002090601f016020900481019282620001c257600085556200020e565b82601f10620001dd57805160ff19168380011785556200020e565b828001600101855582156200020e579182015b828111156200020d578251825591602001919060010190620001f0565b5b5090506200021d919062000221565b5090565b5b808211156200023c57600081600090555060010162000222565b5090565b6000604051905090565b600080fd5b600080fd5b600073ffffffffffffffffffffffffffffffffffffffff82169050919050565b6000620002818262000254565b9050919050565b620002938162000274565b81146200029f57600080fd5b50565b600081519050620002b38162000288565b92915050565b600080fd5b600080fd5b6000601f19601f8301169050919050565b7f4e487b7100000000000000000000000000000000000000000000000000000000600052604160045260246000fd5b6200030e82620002c3565b810181811067ffffffffffffffff8211171562000330576200032f620002d4565b5b80604052505050565b60006200034562000240565b905062000353828262000303565b919050565b600067ffffffffffffffff821115620003765762000375620002d4565b5b6200038182620002c3565b9050602081019050919050565b60005b83811015620003ae57808201518184015260208101905062000391565b83811115620003be576000848401525b50505050565b6000620003db620003d58462000358565b62000339565b905082815260208101848484011115620003fa57620003f9620002be565b5b620004078482856200038e565b509392505050565b600082601f830112620004275762000426620002b9565b5b815162000439848260208601620003c4565b91505092915050565b6000806000606084860312156200045e576200045d6200024a565b5b60006200046e86828701620002a2565b93505060206200048186828701620002a2565b925050604084015167ffffffffffffffff811115620004a557620004a46200024f565b5b620004b3868287016200040f565b9150509250925092565b7f4e487b7100000000000000000000000000000000000000000000000000000000600052602260045260246000fd5b600060028204905060018216806200050557607f821691505b602082108114156200051c576200051b620004bd565b5b50919050565b60805160a051612b1e620005796000396000818161076e0152610ff70152600081816102b0015281816102f0015281816104fe01528181610e8101528181610f58015281816110d4015261139b0152612b1e6000f3fe6080604052600436106100a75760003560e01c806380d14b4a1161006457806380d14b4a146101ba578063bd44ef04146101e5578063c145d7ea14610222578063db81fd991461023e578063dcdb970e14610267578063f851a44014610283576100a7565b8063116191b6146100ac5780631a98b2e0146100d75780631c93b03a1461010057806326eaaf1c1461012b5780634916065814610168578063523fd07414610191575b600080fd5b3480156100b857600080fd5b506100c16102ae565b6040516100ce919061156c565b60405180910390f35b3480156100e357600080fd5b506100fe60048036038101906100f991906116c2565b6102d2565b005b34801561010c57600080fd5b506101156103fd565b604051610122919061186b565b60405180910390f35b34801561013757600080fd5b50610152600480360381019061014d91906118cb565b61048b565b60405161015f9190611913565b60405180910390f35b34801561017457600080fd5b5061018f600480360381019061018a919061192e565b6104e0565b005b34801561019d57600080fd5b506101b860048036038101906101b39190611a4d565b6105ff565b005b3480156101c657600080fd5b506101cf61076c565b6040516101dc9190611abb565b60405180910390f35b3480156101f157600080fd5b5061020c600480360381019061020791906118cb565b610790565b6040516102199190611913565b60405180910390f35b61023c60048036038101906102379190611b2c565b6107e6565b005b34801561024a57600080fd5b5061026560048036038101906102609190611a4d565b610a23565b005b610281600480360381019061027c9190611bc9565b610b90565b005b34801561028f57600080fd5b506102986111b2565b6040516102a59190611c7c565b60405180910390f35b7f000000000000000000000000000000000000000000000000000000000000000081565b600085856040516102e4929190611cd6565b604051809103902090507f000000000000000000000000000000000000000000000000000000000000000073ffffffffffffffffffffffffffffffffffffffff16631876eed98c8c8c8c8c878b8b8b6040518a63ffffffff1660e01b815260040161035799989796959493929190611d3a565b602060405180830381600087803b15801561037157600080fd5b505af1158015610385573d6000803e3d6000fd5b505050506040513d601f19601f820116820180604052508101906103a99190611dcb565b6103df576040517f500c44b400000000000000000000000000000000000000000000000000000000815260040160405180910390fd5b6103f08a8a8a8a8a8a8a8a8a6111d8565b5050505050505050505050565b6002805461040a90611e27565b80601f016020809104026020016040519081016040528092919081815260200182805461043690611e27565b80156104835780601f1061045857610100808354040283529160200191610483565b820191906000526020600020905b81548152906001019060200180831161046657829003601f168201915b505050505081565b60008060008373ffffffffffffffffffffffffffffffffffffffff1673ffffffffffffffffffffffffffffffffffffffff16815260200190815260200160002060009054906101000a900460ff169050919050565b600082826040516104f2929190611cd6565b604051809103902090507f000000000000000000000000000000000000000000000000000000000000000073ffffffffffffffffffffffffffffffffffffffff16635f6970c38989898989876040518763ffffffff1660e01b815260040161055f96959493929190611e59565b602060405180830381600087803b15801561057957600080fd5b505af115801561058d573d6000803e3d6000fd5b505050506040513d601f19601f820116820180604052508101906105b19190611dcb565b6105e7576040517f500c44b400000000000000000000000000000000000000000000000000000000815260040160405180910390fd5b6105f58787878787876114e5565b5050505050505050565b600360009054906101000a900473ffffffffffffffffffffffffffffffffffffffff1673ffffffffffffffffffffffffffffffffffffffff163373ffffffffffffffffffffffffffffffffffffffff161461068f576040517f08c379a000000000000000000000000000000000000000000000000000000000815260040161068690611efc565b60405180910390fd5b60005b8282905081101561072e5760016000808585858181106106b5576106b4611f1c565b5b90506020020160208101906106ca91906118cb565b73ffffffffffffffffffffffffffffffffffffffff1673ffffffffffffffffffffffffffffffffffffffff16815260200190815260200160002060006101000a81548160ff021916908315150217905550808061072690611f7a565b915050610692565b507f6770946f57be3eabcad13d088b91e0231266c78a29dc59947bec3d597f2b35108282604051610760929190612086565b60405180910390a15050565b7f000000000000000000000000000000000000000000000000000000000000000081565b6000600160008373ffffffffffffffffffffffffffffffffffffffff1673ffffffffffffffffffffffffffffffffffffffff16815260200190815260200160002060009054906101000a900460ff169050919050565b60005b82829050811015610a1e573683838381811061080857610807611f1c565b5b905060200281019061081a91906120b9565b905060008082600001602081019061083291906118cb565b73ffffffffffffffffffffffffffffffffffffffff1673ffffffffffffffffffffffffffffffffffffffff16815260200190815260200160002060009054906101000a900460ff166108b9576040517f08c379a00000000000000000000000000000000000000000000000000000000081526004016108b09061212d565b60405180910390fd5b8060400160208101906108cc91906118cb565b73ffffffffffffffffffffffffffffffffffffffff1663095ea7b38260000160208101906108fa91906118cb565b6004546040518363ffffffff1660e01b815260040161091a92919061214d565b602060405180830381600087803b15801561093457600080fd5b505af1158015610948573d6000803e3d6000fd5b505050506040513d601f19601f8201168201806040525081019061096c9190611dcb565b5060008082600001602081019061098391906118cb565b73ffffffffffffffffffffffffffffffffffffffff168380602001906109a99190612176565b6040516109b7929190611cd6565b6000604051808303816000865af19150503d80600081146109f4576040519150601f19603f3d011682016040523d82523d6000602084013e6109f9565b606091505b509150915081610a0857600080fd5b5050508080610a1690611f7a565b9150506107e9565b505050565b600360009054906101000a900473ffffffffffffffffffffffffffffffffffffffff1673ffffffffffffffffffffffffffffffffffffffff163373ffffffffffffffffffffffffffffffffffffffff1614610ab3576040517f08c379a0000000000000000000000000000000000000000000000000000000008152600401610aaa90611efc565b60405180910390fd5b60005b82829050811015610b52576001806000858585818110610ad957610ad8611f1c565b5b9050602002016020810190610aee91906118cb565b73ffffffffffffffffffffffffffffffffffffffff1673ffffffffffffffffffffffffffffffffffffffff16815260200190815260200160002060006101000a81548160ff0219169083151502179055508080610b4a90611f7a565b915050610ab6565b507f61b6b95512649ac0f736af09a1e017c8939ad3be584c62b498bc8165ba97d4748282604051610b84929190612086565b60405180910390a15050565b60003490508215610cdc5773c02aaa39b223fe8d0a0e5c4f27ead9083c756cc273ffffffffffffffffffffffffffffffffffffffff1686866000818110610bda57610bd9611f1c565b5b9050602002810190610bec91906120b9565b6040016020810190610bfe91906118cb565b73ffffffffffffffffffffffffffffffffffffffff1614610c54576040517f08c379a0000000000000000000000000000000000000000000000000000000008152600401610c4b90612225565b60405180910390fd5b73c02aaa39b223fe8d0a0e5c4f27ead9083c756cc273ffffffffffffffffffffffffffffffffffffffff1663d0e30db0856040518263ffffffff1660e01b81526004016000604051808303818588803b158015610cb057600080fd5b505af1158015610cc4573d6000803e3d6000fd5b50505050508381610cd59190612245565b9050610da4565b85856000818110610cf057610cef611f1c565b5b9050602002810190610d0291906120b9565b6040016020810190610d1491906118cb565b73ffffffffffffffffffffffffffffffffffffffff166323b872dd3330876040518463ffffffff1660e01b8152600401610d5093929190612279565b602060405180830381600087803b158015610d6a57600080fd5b505af1158015610d7e573d6000803e3d6000fd5b505050506040513d601f19601f82011682018060405250810190610da29190611dcb565b505b600073ffffffffffffffffffffffffffffffffffffffff1686866000818110610dd057610dcf611f1c565b5b9050602002810190610de291906120b9565b6000016020810190610df491906118cb565b73ffffffffffffffffffffffffffffffffffffffff1614610e7d573073ffffffffffffffffffffffffffffffffffffffff1663c145d7ea87876040518363ffffffff1660e01b8152600401610e4a9291906124a2565b600060405180830381600087803b158015610e6457600080fd5b505af1158015610e78573d6000803e3d6000fd5b505050505b60007f000000000000000000000000000000000000000000000000000000000000000073ffffffffffffffffffffffffffffffffffffffff1663935b13f6848060400190610ecb91906124c6565b6040518363ffffffff1660e01b8152600401610ee8929190612529565b60206040518083038186803b158015610f0057600080fd5b505afa158015610f14573d6000803e3d6000fd5b505050506040513d601f19601f82011682018060405250810190610f389190612562565b90508073ffffffffffffffffffffffffffffffffffffffff1663095ea7b37f000000000000000000000000000000000000000000000000000000000000000085606001356040518363ffffffff1660e01b8152600401610f9992919061214d565b602060405180830381600087803b158015610fb357600080fd5b505af1158015610fc7573d6000803e3d6000fd5b505050506040513d601f19601f82011682018060405250810190610feb9190611dcb565b5060003411156110d2577f000000000000000000000000000000000000000000000000000000000000000073ffffffffffffffffffffffffffffffffffffffff1663c62c2002833086806000019061104391906124c6565b88806020019061105391906124c6565b8a80608001906110639190612176565b8c806040019061107391906124c6565b8e60600135336040518d63ffffffff1660e01b815260040161109f9b9a999897969594939291906125cd565b6000604051808303818588803b1580156110b857600080fd5b505af11580156110cc573d6000803e3d6000fd5b50505050505b7f000000000000000000000000000000000000000000000000000000000000000073ffffffffffffffffffffffffffffffffffffffff1663b541708484806000019061111e91906124c6565b86806020019061112e91906124c6565b88806080019061113e9190612176565b8a806040019061114e91906124c6565b8c606001356040518a63ffffffff1660e01b815260040161117799989796959493929190612660565b600060405180830381600087803b15801561119157600080fd5b505af11580156111a5573d6000803e3d6000fd5b5050505050505050505050565b600360009054906101000a900473ffffffffffffffffffffffffffffffffffffffff1681565b60008060008088888101906111ed91906129da565b93509350935093506000835111156113975760005b83518110156113915781818151811061121e5761121d611f1c565b5b602002602001015173ffffffffffffffffffffffffffffffffffffffff1663095ea7b385838151811061125457611253611f1c565b5b60200260200101516004546040518363ffffffff1660e01b815260040161127c92919061214d565b602060405180830381600087803b15801561129657600080fd5b505af11580156112aa573d6000803e3d6000fd5b505050506040513d601f19601f820116820180604052508101906112ce9190611dcb565b506000808583815181106112e5576112e4611f1c565b5b602002602001015173ffffffffffffffffffffffffffffffffffffffff1685848151811061131657611315611f1c565b5b602002602001015160405161132b9190612ad1565b6000604051808303816000865af19150503d8060008114611368576040519150601f19603f3d011682016040523d82523d6000602084013e61136d565b606091505b50915091508161137c57600080fd5b5050808061138990611f7a565b915050611202565b506114d6565b60007f000000000000000000000000000000000000000000000000000000000000000073ffffffffffffffffffffffffffffffffffffffff1663935b13f689896040518363ffffffff1660e01b81526004016113f4929190612529565b60206040518083038186803b15801561140c57600080fd5b505afa158015611420573d6000803e3d6000fd5b505050506040513d601f19601f820116820180604052508101906114449190612562565b90508073ffffffffffffffffffffffffffffffffffffffff1663a9059cbb86886040518363ffffffff1660e01b815260040161148192919061214d565b602060405180830381600087803b15801561149b57600080fd5b505af11580156114af573d6000803e3d6000fd5b505050506040513d601f19601f820116820180604052508101906114d39190611dcb565b50505b50505050505050505050505050565b505050505050565b600073ffffffffffffffffffffffffffffffffffffffff82169050919050565b6000819050919050565b600061153261152d611528846114ed565b61150d565b6114ed565b9050919050565b600061154482611517565b9050919050565b600061155682611539565b9050919050565b6115668161154b565b82525050565b6000602082019050611581600083018461155d565b92915050565b6000604051905090565b600080fd5b600080fd5b6000819050919050565b6115ae8161159b565b81146115b957600080fd5b50565b6000813590506115cb816115a5565b92915050565b600080fd5b600080fd5b600080fd5b60008083601f8401126115f6576115f56115d1565b5b8235905067ffffffffffffffff811115611613576116126115d6565b5b60208301915083600182028301111561162f5761162e6115db565b5b9250929050565b60008083601f84011261164c5761164b6115d1565b5b8235905067ffffffffffffffff811115611669576116686115d6565b5b602083019150836001820283011115611685576116846115db565b5b9250929050565b6000819050919050565b61169f8161168c565b81146116aa57600080fd5b50565b6000813590506116bc81611696565b92915050565b60008060008060008060008060008060c08b8d0312156116e5576116e4611591565b5b60006116f38d828e016115bc565b9a505060208b013567ffffffffffffffff81111561171457611713611596565b5b6117208d828e016115e0565b995099505060408b013567ffffffffffffffff81111561174357611742611596565b5b61174f8d828e016115e0565b975097505060608b013567ffffffffffffffff81111561177257611771611596565b5b61177e8d828e01611636565b955095505060808b013567ffffffffffffffff8111156117a1576117a0611596565b5b6117ad8d828e016115e0565b935093505060a06117c08d828e016116ad565b9150509295989b9194979a5092959850565b600081519050919050565b600082825260208201905092915050565b60005b8381101561180c5780820151818401526020810190506117f1565b8381111561181b576000848401525b50505050565b6000601f19601f8301169050919050565b600061183d826117d2565b61184781856117dd565b93506118578185602086016117ee565b61186081611821565b840191505092915050565b600060208201905081810360008301526118858184611832565b905092915050565b6000611898826114ed565b9050919050565b6118a88161188d565b81146118b357600080fd5b50565b6000813590506118c58161189f565b92915050565b6000602082840312156118e1576118e0611591565b5b60006118ef848285016118b6565b91505092915050565b60008115159050919050565b61190d816118f8565b82525050565b60006020820190506119286000830184611904565b92915050565b60008060008060008060006080888a03121561194d5761194c611591565b5b600061195b8a828b016115bc565b975050602088013567ffffffffffffffff81111561197c5761197b611596565b5b6119888a828b016115e0565b9650965050604088013567ffffffffffffffff8111156119ab576119aa611596565b5b6119b78a828b016115e0565b9450945050606088013567ffffffffffffffff8111156119da576119d9611596565b5b6119e68a828b01611636565b925092505092959891949750929550565b60008083601f840112611a0d57611a0c6115d1565b5b8235905067ffffffffffffffff811115611a2a57611a296115d6565b5b602083019150836020820283011115611a4657611a456115db565b5b9250929050565b60008060208385031215611a6457611a63611591565b5b600083013567ffffffffffffffff811115611a8257611a81611596565b5b611a8e858286016119f7565b92509250509250929050565b6000611aa582611539565b9050919050565b611ab581611a9a565b82525050565b6000602082019050611ad06000830184611aac565b92915050565b60008083601f840112611aec57611aeb6115d1565b5b8235905067ffffffffffffffff811115611b0957611b086115d6565b5b602083019150836020820283011115611b2557611b246115db565b5b9250929050565b60008060208385031215611b4357611b42611591565b5b600083013567ffffffffffffffff811115611b6157611b60611596565b5b611b6d85828601611ad6565b92509250509250929050565b611b82816118f8565b8114611b8d57600080fd5b50565b600081359050611b9f81611b79565b92915050565b600080fd5b600060a08284031215611bc057611bbf611ba5565b5b81905092915050565b600080600080600060808688031215611be557611be4611591565b5b600086013567ffffffffffffffff811115611c0357611c02611596565b5b611c0f88828901611ad6565b95509550506020611c22888289016116ad565b9350506040611c3388828901611b90565b925050606086013567ffffffffffffffff811115611c5457611c53611596565b5b611c6088828901611baa565b9150509295509295909350565b611c768161188d565b82525050565b6000602082019050611c916000830184611c6d565b92915050565b600081905092915050565b82818337600083830152505050565b6000611cbd8385611c97565b9350611cca838584611ca2565b82840190509392505050565b6000611ce3828486611cb1565b91508190509392505050565b611cf88161159b565b82525050565b6000611d0a83856117dd565b9350611d17838584611ca2565b611d2083611821565b840190509392505050565b611d348161168c565b82525050565b600060c082019050611d4f600083018c611cef565b8181036020830152611d62818a8c611cfe565b90508181036040830152611d7781888a611cfe565b9050611d866060830187611cef565b8181036080830152611d99818587611cfe565b9050611da860a0830184611d2b565b9a9950505050505050505050565b600081519050611dc581611b79565b92915050565b600060208284031215611de157611de0611591565b5b6000611def84828501611db6565b91505092915050565b7f4e487b7100000000000000000000000000000000000000000000000000000000600052602260045260246000fd5b60006002820490506001821680611e3f57607f821691505b60208210811415611e5357611e52611df8565b5b50919050565b6000608082019050611e6e6000830189611cef565b8181036020830152611e81818789611cfe565b90508181036040830152611e96818587611cfe565b9050611ea56060830184611cef565b979650505050505050565b7f6f6e6c792061646d696e2063616e2063616c6c00000000000000000000000000600082015250565b6000611ee66013836117dd565b9150611ef182611eb0565b602082019050919050565b60006020820190508181036000830152611f1581611ed9565b9050919050565b7f4e487b7100000000000000000000000000000000000000000000000000000000600052603260045260246000fd5b7f4e487b7100000000000000000000000000000000000000000000000000000000600052601160045260246000fd5b6000611f858261168c565b91507fffffffffffffffffffffffffffffffffffffffffffffffffffffffffffffffff821415611fb857611fb7611f4b565b5b600182019050919050565b600082825260208201905092915050565b6000819050919050565b611fe78161188d565b82525050565b6000611ff98383611fde565b60208301905092915050565b600061201460208401846118b6565b905092915050565b6000602082019050919050565b60006120358385611fc3565b935061204082611fd4565b8060005b85811015612079576120568284612005565b6120608882611fed565b975061206b8361201c565b925050600181019050612044565b5085925050509392505050565b600060208201905081810360008301526120a1818486612029565b90509392505050565b600080fd5b600080fd5b600080fd5b6000823560016060038336030381126120d5576120d46120aa565b5b80830191505092915050565b7f756e77686974656c6973742065786368616e6765732061726520757365640000600082015250565b6000612117601e836117dd565b9150612122826120e1565b602082019050919050565b600060208201905081810360008301526121468161210a565b9050919050565b60006040820190506121626000830185611c6d565b61216f6020830184611d2b565b9392505050565b60008083356001602003843603038112612193576121926120aa565b5b80840192508235915067ffffffffffffffff8211156121b5576121b46120af565b5b6020830192506001820236038313156121d1576121d06120b4565b5b509250929050565b7f455448206d75737420626520666972737420746f6b656e20696e000000000000600082015250565b600061220f601a836117dd565b915061221a826121d9565b602082019050919050565b6000602082019050818103600083015261223e81612202565b9050919050565b60006122508261168c565b915061225b8361168c565b92508282101561226e5761226d611f4b565b5b828203905092915050565b600060608201905061228e6000830186611c6d565b61229b6020830185611c6d565b6122a86040830184611d2b565b949350505050565b600082825260208201905092915050565b6000819050919050565b600080fd5b600080fd5b600080fd5b600080833560016020038436030381126122f7576122f66122d5565b5b83810192508235915060208301925067ffffffffffffffff82111561231f5761231e6122cb565b5b600182023603841315612335576123346122d0565b5b509250929050565b600082825260208201905092915050565b600061235a838561233d565b9350612367838584611ca2565b61237083611821565b840190509392505050565b60006060830161238e6000840184612005565b61239b6000860182611fde565b506123a960208401846122da565b85830360208701526123bc83828461234e565b925050506123cd6040840184612005565b6123da6040860182611fde565b508091505092915050565b60006123f1838361237b565b905092915050565b600082356001606003833603038112612415576124146122d5565b5b82810191505092915050565b6000602082019050919050565b600061243a83856122b0565b93508360208402850161244c846122c1565b8060005b8781101561249057848403895261246782846123f9565b61247185826123e5565b945061247c83612421565b925060208a01995050600181019050612450565b50829750879450505050509392505050565b600060208201905081810360008301526124bd81848661242e565b90509392505050565b600080833560016020038436030381126124e3576124e26120aa565b5b80840192508235915067ffffffffffffffff821115612505576125046120af565b5b602083019250600182023603831315612521576125206120b4565b5b509250929050565b60006020820190508181036000830152612544818486611cfe565b90509392505050565b60008151905061255c8161189f565b92915050565b60006020828403121561257857612577611591565b5b60006125868482850161254d565b91505092915050565b600082825260208201905092915050565b60006125ac838561258f565b93506125b9838584611ca2565b6125c283611821565b840190509392505050565b600060e0820190506125e2600083018e611c6d565b81810360208301526125f5818c8e611cfe565b9050818103604083015261260a818a8c611cfe565b9050818103606083015261261f81888a6125a0565b90508181036080830152612634818688611cfe565b905061264360a0830185611d2b565b61265060c0830184611c6d565b9c9b505050505050505050505050565b600060a082019050818103600083015261267b818b8d611cfe565b9050818103602083015261269081898b611cfe565b905081810360408301526126a58187896125a0565b905081810360608301526126ba818587611cfe565b90506126c96080830184611d2b565b9a9950505050505050505050565b60006126e2826114ed565b9050919050565b6126f2816126d7565b81146126fd57600080fd5b50565b60008135905061270f816126e9565b92915050565b7f4e487b7100000000000000000000000000000000000000000000000000000000600052604160045260246000fd5b61274d82611821565b810181811067ffffffffffffffff8211171561276c5761276b612715565b5b80604052505050565b600061277f611587565b905061278b8282612744565b919050565b600067ffffffffffffffff8211156127ab576127aa612715565b5b602082029050602081019050919050565b60006127cf6127ca84612790565b612775565b905080838252602082019050602084028301858111156127f2576127f16115db565b5b835b8181101561281b578061280788826118b6565b8452602084019350506020810190506127f4565b5050509392505050565b600082601f83011261283a576128396115d1565b5b813561284a8482602086016127bc565b91505092915050565b600067ffffffffffffffff82111561286e5761286d612715565b5b602082029050602081019050919050565b600080fd5b600067ffffffffffffffff82111561289f5761289e612715565b5b6128a882611821565b9050602081019050919050565b60006128c86128c384612884565b612775565b9050828152602081018484840111156128e4576128e361287f565b5b6128ef848285611ca2565b509392505050565b600082601f83011261290c5761290b6115d1565b5b813561291c8482602086016128b5565b91505092915050565b600061293861293384612853565b612775565b9050808382526020820190506020840283018581111561295b5761295a6115db565b5b835b818110156129a257803567ffffffffffffffff8111156129805761297f6115d1565b5b80860161298d89826128f7565b8552602085019450505060208101905061295d565b5050509392505050565b600082601f8301126129c1576129c06115d1565b5b81356129d1848260208601612925565b91505092915050565b600080600080608085870312156129f4576129f3611591565b5b6000612a0287828801612700565b945050602085013567ffffffffffffffff811115612a2357612a22611596565b5b612a2f87828801612825565b935050604085013567ffffffffffffffff811115612a5057612a4f611596565b5b612a5c878288016129ac565b925050606085013567ffffffffffffffff811115612a7d57612a7c611596565b5b612a8987828801612825565b91505092959194509250565b600081519050919050565b6000612aab82612a95565b612ab58185611c97565b9350612ac58185602086016117ee565b80840191505092915050565b6000612add8284612aa0565b91508190509291505056fea2646970667358221220a8b95366e143b0e387eb224460df2a38809c17c71f37b1f0a9fa71f79636946f64736f6c63430008090033",
  "linkReferences": {},
  "deployedLinkReferences": {}
}